{
  "_format": "hh-sol-artifact-1",
  "contractName": "Counter",
  "sourceName": "contracts/Counter.sol",
  "abi": [
    {
      "anonymous": false,
      "inputs": [
        {
          "indexed": false,
          "internalType": "uint256",
          "name": "by",
          "type": "uint256"
        }
      ],
      "name": "Increment",
      "type": "event"
    },
    {
      "inputs": [],
      "name": "inc",
      "outputs": [],
      "stateMutability": "nonpayable",
      "type": "function"
    },
    {
      "inputs": [
        {
          "internalType": "uint256",
          "name": "by",
          "type": "uint256"
        }
      ],
      "name": "incBy",
      "outputs": [],
      "stateMutability": "nonpayable",
      "type": "function"
    },
    {
      "inputs": [],
      "name": "x",
      "outputs": [
        {
          "internalType": "uint256",
          "name": "",
          "type": "uint256"
        }
      ],
      "stateMutability": "view",
      "type": "function"
    }
  ],
  "bytecode": "0x6080604052348015600f57600080fd5b506103a68061001f6000396000f3fe608060405234801561001057600080fd5b50600436106100415760003560e01c80630c55699c14610046578063371303c01461006457806370119d061461006e575b600080fd5b61004e61008a565b60405161005b9190610191565b60405180910390f35b61006c610090565b005b610088600480360381019061008391906101dd565b6100e3565b005b60005481565b60016000808282546100a29190610239565b925050819055507f51af157c2eee40f68107a47a49c32fbbeb0a3c9e5cd37aa56e88e6be92368a8160016040516100d991906102b2565b60405180910390a1565b60008111610126576040517f08c379a000000000000000000000000000000000000000000000000000000000815260040161011d90610350565b60405180910390fd5b806000808282546101379190610239565b925050819055507f51af157c2eee40f68107a47a49c32fbbeb0a3c9e5cd37aa56e88e6be92368a818160405161016d9190610191565b60405180910390a150565b6000819050919050565b61018b81610178565b82525050565b60006020820190506101a66000830184610182565b92915050565b600080fd5b6101ba81610178565b81146101c557600080fd5b50565b6000813590506101d7816101b1565b92915050565b6000602082840312156101f3576101f26101ac565b5b6000610201848285016101c8565b91505092915050565b7f4e487b7100000000000000000000000000000000000000000000000000000000600052601160045260246000fd5b600061024482610178565b915061024f83610178565b92508282019050808211156102675761026661020a565b5b92915050565b6000819050919050565b6000819050919050565b600061029c6102976102928461026d565b610277565b610178565b9050919050565b6102ac81610281565b82525050565b60006020820190506102c760008301846102a3565b92915050565b600082825260208201905092915050565b7f696e6342793a20696e6372656d656e742073686f756c6420626520706f73697460008201527f6976650000000000000000000000000000000000000000000000000000000000602082015250565b600061033a6023836102cd565b9150610345826102de565b604082019050919050565b600060208201905081810360008301526103698161032d565b905091905056fea264697066735822122019d66efae690981fe21bef8bd2b78b41d55ccb98dd2502386f5c523431b9279a64736f6c634300081c0033",
  "linkReferences": {},
  "deployedLinkReferences": {}
}